:020000001A2DB7
:10000600313083120313FD00FD0B072800000000AA
:020016000800E0
:0E001800F201F101F001F801F30100300800DF
:100026007B15FB1F1D280130F300F201F101F001E1
:08003600FA0DF20CFF30080086
:08003E00FA1FF2130030080064
:10004600163083120313FC006C30FD00FD0B2928CB
:08005600FC0B29280000080042
:08005E00000000000000080092
:06006600FB15FF3008004D
:10006C00FB14FB1F4028FF30F300F200F100F000FE
:08007C00FA0DF20CFF30080040
:1000840083120317961B4828861249288616161BC6
:100094004D2806124E280616961A52288611532801
:1000A4008615161A572806115828061583160313A1
:1000B4006A185F28831206146128831206108614B6
:1000C4002F20861003179619692886126A28861627
:1000D40016196E2806126F280616961873288611AC
:1000E400742886151618782806117928061583169B
:1000F40003136A18802883120614822883120610B8
:1001040086142F20861083166A1C8A2823208B28A5
:0401140003200800BC
:100118007B14FB1F9728F201FA1FFF30F200F10051
:0A012800F000FA0DF20CFF300800A1
:10013200153083120313FD00FD0B9D280000000003
:020142000800B3
:10014400710DF80DF90D7408F8027508031C750F8C
:10015400F902F00DF10D0F30FC00710DF80DF90DE1
:100164007408701CBB28F8027508031C750FF9028B
:10017400C028F80775080318750FF907F00DF10D7D
:10018400FC0BAF287018CC287408F80775080318FE
:08019400750FF90700000800D7
:10019C00A0017208031DE3287108F2007008F10039
:1001AC00F001A0157208031DE3287108F200F1019B
:1001BC00A011201672080319F1282008F302031D60
:1001CC00031CF5280310F21BF928F00DF10DF20DAC
:1001DC00F30BE928F5280130FC000C20FC28023038
:0E01EC00FC001320FC280430FC001F2008003B
:1001FA000F2980308312031793002229C0309300FD
:10020A002229943093002229D43093002229803065
:10021A0093002229831203171308013A0319FE28AF
:10022A001308023A031903291308033A0319062982
:10023A001308043A031909290C291403F0001308B6
:10024A00F00770089300831603136A147008831268
:10025A0003179600422083166A10831203171508A3
:0A026A009600422083166A14080073
:0E0274008316031363088A00620882000800E4
:10028200831203137408003A031D50297508003ABB
:10029200031D5029FF30F0007F30F100A92983129D
:1002A2000313FD01F901F801710870040319003408
:1002B20071087506FA00FA1BFD09FB01F51F662994
:1002C200F409F509F40A0319F50AF11F6D29F00979
:1002D200F109F00A0319F10A71087504FA00FA1B10
:1002E2008229A2207B189529FD1F0034F009F1090B
:1002F200F00A0319F10AF809F909F80A0319F90AC7
:100302000034F51F9129F11B8D297108F90070083D
:10031200F800F101F0017529F101F001F00A003451
:10032200F109F009FB0A7229F80A0319F90A74089B
:100332007802031D752975087902031D7529F901D3
:10034200F801F00A0319F10AF11F75290000FF34C0
:020352000800A1
:1003540083120313F801F9011030FC00710DF80D3C
:10036400F90D7408F8027508031C750FF9020318D7
:10037400C2297408F80775080318750FF9070310E4
:0A038400F00DF10DFC0BB02908008C
:10038E00831203139F01C0309F0483161F179F17FC
:10039E00831203171308F000F00D7010F00D70109B
:1003AE00F00D7010700803139F041F1499201F1571
:1003BE001F1DE3290000DF291F101E08F100F001A8
:0C03CE0083161E08F0040030F104080043
:1003DA0083120313FB01730803192A2A7208FA000D
:1003EA00F2178E30F302F31F2D2AF309F30A0830AD
:1003FA007302031C102AF300F10D7208F100F201D6
:10040A0008307302031C102AF300F10DF10173087E
:10041A00031D0310182A73080319182A0310F20C73
:10042A00F10CF30B132A7B1B711C222A031C222AB0
:10043A00F10A0319F20AF21B392AFA1F3C2AF209B5
:10044A00F109F10A0319F20A3C2AF201F1013C2AE4
:10045A007B14FB1F3F2AF201FA1F3F2AFF30F200EA
:10046A00F100FA0DF20C3F2A0130FC00412A00305B
:10047A00FC00412AFF30FC00FC080319452A8C20A5
:0A048A007108F0007208F10008008C
:10049400831203137408003A031D652A7508003A91
:1004A400031D652A7608003A031D652A7708003A79
:1004B400031D652AFF30F000FF30F1007F30F200A9
:1004C400FF30F300002B8312031377080319F42A77
:1004D40073080319F72A720876068039FA00F217AE
:1004E400F617A0017208F8007108FC007008FD00FE
:1004F4007408FD027508031C750FFC027608031CC2
:10050400760FF802F801FC01FD01031C902A031088
:10051400F20CF10CF00CF80C0130A0007708F30297
:10052400031C9A2A7E302007F3070318FA2A9F2A0D
:100534007E302007F307031CFD2A1830FA07FD0D4F
:10054400FC0DF80DF00DF10DF20DA00D7408F00284
:100554007508031C750FF1027608031C760FF2026E
:10056400760DA004201CB82A7D14C32A7408F00751
:1005740075080318750FF10776080318760AF20751
:100584007D10FA031F307A05031DA12A7B1B7D1CF5
:10059400EA2A0310F00DF10DF20DA00D7408F0021B
:1005A4007508031C750FF1027608031C760FF2021E
:1005B400760D20040139FD070318FC0A0319F80A13
:1005C400031DEA2AF80CFC0CFD0CF30A0319FA2AA1
:1005D400FA1FF8137808F2007C08F1007D08F00097
:1005E4000030FF2A01303320FF2A02300C20FF2A7A
:0E05F40004303620FF2A0830132000000800D3
:10060200831203137008F8007108F000F101F2017F
:10061200F301FB01FC019630F300FA017008F100CE
:0C0622007808F000F801F201CE2008007A
:10062E0083120313FB017308031D770803196E2B46
:10063E0072087606FA007708F3077E30031C2B2B20
:10064E00F3020318712B2E2BF302031C742B72086A
:10065E00F8007108FC007008FD00F817F61703107B
:10066E00F201F101F0011830A0007D1C482B740836
:10067E00F00775080318750FF10776080318760F43
:10068E00F207F20CF10CF00CF80CFC0CFD0C031044
:10069E00A00B3C2BF21B582BF80DF00DF10DF20DAB
:1006AE00F3037B1B701C6A2BF81F6A2BF00A0319CD
:1006BE00F10A0319F20A031D6A2BF20CF10CF00C6D
:1006CE00F30A0319712BFA1FF2130030762B013047
:1006DE000C20762B02303620762B043013200000AF
:0206EE00080002
:1006F000831603136A10831203171308960042200F
:0607000083166A140800D4
:100706000130831203179300C72101237008831653
:10071600E4007108E5007208E6007308E70000309F
:10072600F4000030F5002030F6008130F700172382
:100736000030F400C030F5007F30F6008830F70056
:100746004A2270088316DE007108DF007208E00096
:100756007308E1000030F4000030F5004830F60080
:100766008530F7001723ED2170088316DC00710829
:04077600DD0008009A
:10077A00CF2B8030831203179000E22BC0309000F9
:10078A00E22B94309000E22BD4309000E22B8030A0
:10079A009000E22B831203171008013A0319BE2BAB
:1007AA001008023A0319C32B1008033A0319C62B7F
:1007BA001008043A0319C92BCC2B1103F0001008B6
:1007CA00F0077008900070089600422083166A109D
:1007DA00EE016E088312031712078400000803193A
:1007EA00022C831603136E08831203171207840060
:1007FA00000893007823EE0AEE2B831603136A147B
:02080A000800E4
:10080C00643083120313F4000030F50083165C0887
:10081C00F0005D08F10041210130031793000A300C
:10082C0094007008303E9500FD206430F4000030D8
:10083C00F5005C08F0005D08F10041217808F0003B
:10084C007908F1000A30F4000030F5004121013044
:10085C00031793000B3094007008303E9500FD2078
:10086C000A30F4000030F5005C08F0005D08F1007F
:10087C0041217808F0007908F1000130031793004A
:0E088C000C3094007008303E9500FD200800EE
:10089A00643083120313F4000030F50083166808ED
:1008AA00F0006908F100AA21700803179000710886
:1008BA0091006430F4000030F500831603136808D1
:1008CA00F0006908F100AA217808F0007908F1001F
:1008DA000A30F4000030F500AA2170088316EE00F1
:1008EA000A30F4000030F5006808F0006908F100E9
:1008FA00AA217808F0007908F10070088316EF0041
:10090A0002308312031793000A3094001008303E15
:10091A009500FD2002308312031793000B309400D8
:10092A00831603136E08303E831203179500FD20C9
:10093A0002308312031793000C30940083160313BA
:0E094A006F08303E831203179500FD20080051
:10095800FF3083160313EB00FF30EC00FF30ED008F
:10096800FF3083129F01C0309F0483161F179F1703
:0609780083121F140800A9
:10097E0083160313861006100611861106128612B0
:10098E008312861006108612061286110611232077
:10099E00232023208615061586142F20861023204B
:1009AE0086142F208610232086142F2086102320B5
:1009BE00061186142F208610232086142F208610D1
:1009CE008611861686142F20861023208612061571
:1009DE0086142F208610061186142F2086102320B1
:1009EE0086142F208610061586142F20861023209D
:1009FE00061186142F2086108616061686150615E5
:0E0A0E0086142F208610232083166A140800F9
:100A1C003A218A110A128000840AE20A0319E30AB5
:080A2C00F003031D0E2D08006C
:100A34003E2783160313E801E90187018312870126
:100A4400FF3083168800FF30831288000230FB00D9
:100A54008630FC009930FD00FD0B2E2DFC0B2E2D55
:100A6400FB0B2E2DBF24AC2401300317960042202B
:100A74000C30031796004220013003179000013018
:100A8400910021309200BD2302308312031790009D
:100A94000130910034309200BD232E30FB00A93088
:100AA400FC002F30FD00FD0B552DFC0B552DFB0BD1
:100AB400552D01308312031796004220013003178D
:100AC4009000013091004A309200BD23023083121D
:100AD400031790000530910043309200BD232E305F
:100AE400FB00A930FC002F30FD00FD0B772DFC0B23
:100AF400772DFB0B772D01308312031796004220CC
:100B0400013003179000033091005B309200BD2345
:100B14001030FB003930FC000D30FD00FD0B902D32
:100B2400FC0B902DFB0B902D000000000130831274
:100B34000317960042200130031790000130910002
:100B4400AE309200BD2302308312031790000130AF
:100B54009100A0309200BD232E30FB00A930FC0090
:100B64002F30FD00FD0BB42DFC0BB42DFB0BB42D6D
:100B740001308312031796004220013003179000BE
:100B840003309100BF309200BD230230831203175B
:100B9400900004309100D3309200BD231F30FB003D
:100BA4007130FC001E30FD00FD0BD62DFC0BD62D44
:100BB400FB0BD62D00000130831203179600422050
:100BC4004D24023083120317900001309100CA3083
:100BD4009200BD2301308312031793000130940067
:100BE4002E309500FD202E308312031793007823B6
:100BF4002E308312031793007823013083120317D6
:100C04009000043091006A309200BD2301308312B9
:100C1400031793000D309400DF309500FD2043301E
:100C240083120317930078238312871483230624E3
:100C34004D2483120818482E081C1E2E8818452E91
:100C4400881C222E8316E80A0319E90A8312881DD8
:100C54002D2E87172E2E8713803083165D06F00005
:100C64008030831269067002031D3B2E68088316C8
:100C74005C02031C412E831207168716442E83122E
:100C840007128712472E0818202E612E8818612E0D
:100C9400881C4A2E08185E2E081C4E2E83166908DE
:100CA400003C031D572E6808003C03185D2E0130DC
:100CB400E802031CE903612E831288184C2E80304D
:100CC40083165D06F0008030831269067002031DEE
:100CD4006E2E680883165C02031C7D2E8316690839
:100CE400003C031D772E6808003C03187D2E8312F8
:100CF40007168716802E831207128712881D902EDE
:100D04000230FB008630FC009930FD00FD0B882E7C
:100D1400FC0B882EFB0B882E8717912E871300302F
:100D240083166906031D982E00306806031DAC2E39
:100D3400831287130430FB000C30FC003330FD00B9
:100D4400FD0BA22EFC0BA22EFB0BA22E000000001A
:080D540007128712162EAD2EC6
:100E7C00213084004F3083120313F000B3308316FB
:100E8C00E2000630E3000E25A03084003C30031352
:100E9C00F00002308316E2000730E3000E25080054
:100D660049346E3469347434693461346C346934AA
:100D76007A3469346E3467342E342E342E342E345D
:060D86002E342E3400346F
:100D8C0050346C34653461347334653420345734E6
:0E0D9C0061346934743421342134213400343C
:0E0DAA00533459345334543445344D340034EA
:100DB80053344D34413452345434203445344E3451
:100DC800453452344734593420344D34473454343C
:020DD8000034E5
:100DDA00443445345334493447344E344534443426
:0A0DEA002034423459343A34003406
:040DF400193400347A
:0C0DF800543445344D3450343A34003447
:100E0400203455344E3449345A3449344B342C3418
:0C0E14002034413457344B344134003456
:100E200045342E3443342E34453420344434453450
:100E300050344134523454344D3445344E345434A7
:020E400000347C
:100E4200203432343034313435342F343234303487
:060E520031343634003497
:100E580045344E34543452344934453453343A3496
:020E6800003454
:100E6A002034533445345334533449344F344E3494
:020E7A00003442
:02400E004A2F37
:00000001FF
